:020000040000fa
:080000000002040000000000f2
:020000040000fa
:040008004c030000a5
:020000040000fa
:04000c004c030000a1
:020000040000fa
:040010004c0300009d
:020000040000fa
:040014004c03000099
:020000040000fa
:040018004c03000095
:020000040000fa
:04001c004c03000091
:020000040000fa
:040020004c0300008d
:020000040000fa
:040024004c03000089
:020000040000fa
:040028004c03000085
:020000040000fa
:04002c004c03000081
:020000040000fa
:040030004c0300007d
:020000040000fa
:040034004403000081
:020000040000fa
:040038004c03000075
:020000040000fa
:04003c004c03000071
:020000040000fa
:040040004c0300006d
:020000040000fa
:040044004c03000069
:020000040000fa
:040048004c03000065
:020000040000fa
:04004c00300300007d
:020000040000fa
:040050004c0300005d
:020000040000fa
:040054004c03000059
:020000040000fa
:040058004c03000055
:020000040000fa
:04005c004c03000051
:020000040000fa
:040060004c0300004d
:020000040000fa
:040064004c03000049
:020000040000fa
:040068004c03000045
:020000040000fa
:04006c002803000065
:020000040000fa
:040070004c0300003d
:020000040000fa
:04007400fa0200008c
:020000040000fa
:040078004c03000035
:020000040000fa
:04007c004c03000031
:020000040000fa
:040080004c0300002d
:020000040000fa
:040084004c03000029
:020000040000fa
:040088004c03000025
:020000040000fa
:04008c004c03000021
:020000040000fa
:040090004c0300001d
:020000040000fa
:040094004c03000019
:020000040000fa
:040098004c03000015
:020000040000fa
:04009c004c03000011
:020000040000fa
:0400a0004c0300000d
:020000040000fa
:0400a4004c03000009
:020000040000fa
:0400a8003a03000017
:020000040000fa
:0400ac004c03000001
:020000040000fa
:0400b0004c030000fd
:020000040000fa
:0400b4004c030000f9
:020000040000fa
:0400b8004c030000f5
:020000040000fa
:0400bc004c030000f1
:020000040000fa
:0400c0004c030000ed
:020000040000fa
:0400c4004c030000e9
:020000040000fa
:0400c8004c030000e5
:020000040000fa
:0400cc004c030000e1
:020000040000fa
:0400d0004c030000dd
:020000040000fa
:0400d4004c030000d9
:020000040000fa
:0400d8004c030000d5
:020000040000fa
:0400dc004c030000d1
:020000040000fa
:0400e0004c030000cd
:020000040000fa
:0400e4004c030000c9
:020000040000fa
:0400e8004c030000c5
:020000040000fa
:0400ec004c030000c1
:020000040000fa
:0400f0004c030000bd
:020000040000fa
:0400f4004c030000b9
:020000040000fa
:0400f8004c030000b5
:020000040000fa
:0400fc004c030000b1
:020000040000fa
:040100004c030000ac
:020000040000fa
:040104004c030000a8
:020000040000fa
:040108004c030000a4
:020000040000fa
:04010c004c030000a0
:020000040000fa
:040110004c0300009c
:020000040000fa
:040114004c03000098
:020000040000fa
:040118004c03000094
:020000040000fa
:04011c004c03000090
:020000040000fa
:040120004c0300008c
:020000040000fa
:040124004c03000088
:020000040000fa
:040128004c03000084
:020000040000fa
:04012c004c03000080
:020000040000fa
:040130004c0300007c
:020000040000fa
:040134004c03000078
:020000040000fa
:040138004c03000074
:020000040000fa
:04013c004c03000070
:020000040000fa
:040140004c0300006c
:020000040000fa
:040144004c03000068
:020000040000fa
:040148004c03000064
:020000040000fa
:04014c004c03000060
:020000040000fa
:040150004c0300005c
:020000040000fa
:040154004c03000058
:020000040000fa
:040158004c03000054
:020000040000fa
:04015c004c03000050
:020000040000fa
:040160004c0300004c
:020000040000fa
:040164004c03000048
:020000040000fa
:040168004c03000044
:020000040000fa
:04016c004c03000040
:020000040000fa
:040170004c0300003c
:020000040000fa
:040174004c03000038
:020000040000fa
:040178004c03000034
:020000040000fa
:04017c004c03000030
:020000040000fa
:040180004c0300002c
:020000040000fa
:040184004c03000028
:020000040000fa
:040188004c03000024
:020000040000fa
:04018c004c03000020
:020000040000fa
:040190004c0300001c
:020000040000fa
:040194004c03000018
:020000040000fa
:040198004c03000014
:020000040000fa
:04019c004c03000010
:020000040000fa
:0401a0004c0300000c
:020000040000fa
:0401a4004c03000008
:020000040000fa
:0401a8004c03000004
:020000040000fa
:0401ac004c03000000
:020000040000fa
:0401b0004c030000fc
:020000040000fa
:0401b4004c030000f8
:020000040000fa
:0401b8004c030000f4
:020000040000fa
:0401bc004c030000f0
:020000040000fa
:0401c0004c030000ec
:020000040000fa
:0401c4004c030000e8
:020000040000fa
:0401c8004c030000e4
:020000040000fa
:0401cc004c030000e0
:020000040000fa
:0401d0004c030000dc
:020000040000fa
:0401d4004c030000d8
:020000040000fa
:0401d8004c030000d4
:020000040000fa
:0401dc004c030000d0
:020000040000fa
:0401e0004c030000cc
:020000040000fa
:0401e4004c030000c8
:020000040000fa
:0401e8004c030000c4
:020000040000fa
:0401ec004c030000c0
:020000040000fa
:0401f0004c030000bc
:020000040000fa
:0401f4004c030000b8
:020000040000fa
:0401f8004c030000b4
:020000040000fa
:0401fc004c030000b0
:020000040000fa
:040200004c030000ab
:020000040000fa
:040204004c030000a7
:020000040000fa
:040208004c030000a3
:020000040000fa
:04020c004c0300009f
:020000040000fa
:040210004c0300009b
:020000040000fa
:040214004c03000097
:020000040000fa
:040218004c03000093
:020000040000fa
:04021c004c0300008f
:020000040000fa
:040220004c0300008b
:020000040000fa
:040224004c03000087
:020000040000fa
:040228004c03000083
:020000040000fa
:04022c004c0300007f
:020000040000fa
:040230004c0300007b
:020000040000fa
:040234004c03000077
:020000040000fa
:040238004c03000073
:020000040000fa
:04023c004c0300006f
:020000040000fa
:040240004c0300006b
:020000040000fa
:040244004c03000067
:020000040000fa
:040248004c03000063
:020000040000fa
:04024c004c0300005f
:020000040000fa
:040250004c0300005b
:020000040000fa
:040254004c03000057
:020000040000fa
:040258004c03000053
:020000040000fa
:04025c004c0300004f
:020000040000fa
:040260004c0300004b
:020000040000fa
:040264004c03000047
:020000040000fa
:040268004c03000043
:020000040000fa
:04026c004c0300003f
:020000040000fa
:040270004c0300003b
:020000040000fa
:040274004c03000037
:020000040000fa
:040278004c03000033
:020000040000fa
:04027c004c0300002f
:020000040000fa
:040280004c0300002b
:020000040000fa
:10040000af0921000eff28000e0188000000000047
:10041000000020000000e000020032000001200087
:100420002002880014000700760507000000e000a5
:1004300003003a00407f2100010020000200370045
:100440000000200001002000810f70000100320038
:100450000f000700000020000000e0000200320052
:100460000000020000000000d017020000000000a1
:100470000040da000000fe00200020000000e00044
:1004800002003200100020009001880000000600e9
:10049000a1028800800478000000eb001f003700f4
:1004a000e284440054a0b4009905ba00e2844400f8
:1004b00054a0b4009906ba00e284440054a0b400e9
:1004c0000006eb00476fde00fd07b200ae018800ba
:1004d000636ce10003003a000ad801000000eb0061
:1004e0000e003700606ce10008003a00004deb00a0
:1004f0000a05e800020039003420ec000af0a000f0
:100500008b05e900f9ff3e00040037006168e10057
:10051000010032000086eb000b00070019c7ba008b
:100520000e04e0001905ba0003003a000a00e000da
:10053000dbff3a0000000600fe07b200ae028800b2
:100540008a047800f5ff37000cd0a300e20f4d00bd
:100550001c00390089027800354dba000a05e80010
:10056000020039003420ec000af0a0008b05e900fd
:100570000f003200254dba000a05e80002003900dc
:100580003420ec000af0a0008b05e90008003200de
:100590000c00e0000600320015cdba000a05e800a4
:1005a000020039003420ec000af0a0008b05e900bd
:1005b0008984e80054a0b4000b00e000e2ff3a0098
:1005c000000006009902ba00055d78008b05e9007d
:1005d000f7ff3200c82ade00055d78008b05e900d0
:1005e000f3ff32000c00e000f1ff320019ddba0029
:1005f000eeff370000a0fe003600f800849fbe002a
:10060000869fbe000000fa00132ea800b90607005e
:100610002023a800610607002023a90020c6b300fc
:10062000df060700f0818000610907002083880051
:10063000132ea9000268a9000080fa004f03be0033
:100640004f02be003600f9000080fe0000400600a8
:100650000000fa000228a9000080fa00004006000d
:100660000000fa0040c2a9000128a9000080fa0099
:10067000004006000000fa0060c2a9000408a900ba
:100680000080fa00004006000000fa000068a9009f
:100690000080fa00004006000040da000000fe0082
:1006a0001600200001f0a30004003900f2ff2f0023
:1006b0000192b9000010b900810042004f89de00ac
:1006c000cf89de00e4062300f5452100861f78006f
:1006d000810178000403b8000500b80087034000da
:1006e000608348000418b800870340000683480070
:1006f0000518b80006034000e08148000410b80067
:1007000006034000838148000510b80083014000c3
:1007100083014000860278004f0378000400220025
:100720008480430060814a00e0814900ce08de00f9
:100730004212dd00048070004e11de00421add001e
:10074000840071000100a7000603ea0000f0a70082
:100750000603ea0000f0a70060001000d117250092
:100760000100e1002f003100814826000100b8009f
:100770004d00de00c308dd0081007000c01b2000ba
:100780000008e10003003100f0ff2f000030b90045
:100790000000060002002000130020000108b8003d
:1007a00081037800040028000122b80005015100ef
:1007b000e08159000708b800545525000122b8000f
:1007c000c3aade0005014100e08149000708b80026
:1007d00034d822000122b800c7aade00050151006a
:1007e000e08159000708b800040d20000122b8007c
:1007f000c7aade0005014100e08149000708b800f2
:10080000240020000122b800c7aade000501510023
:10081000e081590003b2b9000230b9008100420002
:1008200000000600010028000080500081482600da
:100830000100b8004d00de00c308dd00810070003b
:10084000810378000109b8000308b800505525005d
:10085000000ab800c1aade00858353000308b8006f
:1008600040442400000ab800c5aade008583430086
:100870000308b80000682000000ab800c7aade001c
:10088000858353000730b900000006000080000097
:1008900000000000f15b000001000000cdb100008d
:1008a00003000000f30a00000a000000904c000062
:1008b0001b000000e23400004a000000e3b6000024
:1008c000c90000000b510000240200009f7a0000c4
:1008d000d2050000be8a0000d30f00009f3b00003d
:1008e000052b000024120000f1740000000000003d
:1008f0002d5e0000a5220000bf0c0000b004000027
:10090000ba010000a20000003c0000001600000038
:100910000800000003000000010000000100e000ea
:100920000a003d0044ff2f000408e10011003c00d4
:1009300003003a00c47623000400e1000d003c00ef
:100940008000eb000000eb0000000600a400200087
:100950000408e1000700350003003a00f45a2600bd
:100960000400e10003003600f1ff2700f0ff2f0034
:1009700000000600889fbe008a9fbe008c9fbe00bc
:100980000004eb0001f0a700180020000001eb00bc
:100990001890e7008100ea00811f7800881f780026
:1009a00003002400001ab8000403410085834900b5
:1009b0000002b8004222de004e29dd000201720072
:1009c000c229de0005002400cf98de000516b8001d
:1009d000e004460060854e00051eb8000a0546008a
:1009e000e0854e00050eb8008b054600cf4cde00ba
:1009f0004152dd00848474004f55de00415add0011
:100a000004057500090343008a834b004f9ade00fa
:100a10000204b8000306b8008904460060854e0051
:100a20000406b8000a05460061814400e0014d005b
:100a3000b4aa2a00a5aa2000cf98de000414b800aa
:100a40000516b8008904460060854e008005eb005d
:100a5000041eb800890446000a854e00e0854d005a
:100a6000051eb8000a0546008b854e00040eb8002e
:100a70000a0546008b854e00050eb8008b05460022
:100a8000040eb8008b054600040022008484440054
:100a900060054d00e0854d00ce4cde004252dd0089
:100aa000848474004e55de00425add000405750052
:100ab000090343008a834b004f9ade000204b8000a
:100ac0000306b8008904460060854e000406b8009d
:100ad0000a05460061814400e0014d00b4aa2a00e5
:100ae000a52a2000cf98de000414b8000516b8002f
:100af0008904460060854e008005eb00041eb800a6
:100b0000890446000a854e00e0854d00051eb800a8
:100b10000a0546008b854e00040eb8000a05460003
:100b20008b854e00050eb8008b054600040eb800fc
:100b30008b054600040022008484440060054d00bb
:100b4000e0854d00ce4cde004252dd00848474000e
:100b50004e55de00425add000405750009034300ce
:100b60008a834b004f9ade000204b8000306b800e7
:100b70000901460060854e000406b8008a0146005f
:100b80009488280085082000cf98de000414b8005f
:100b90000516b8008904460060854e008005eb000c
:100ba000041eb800890446000a854e00e0854d0009
:100bb000051eb8000a0546008b854e00040eb800dd
:100bc0000a0546008b854e00050eb8008b054600d1
:100bd000040eb8008b054600ce4cde004252dd000c
:100be000848474004e55de00425add000405750011
:100bf000090343008a834b004f9ade000204b800c9
:100c00000306b8000901460060854e000406b800de
:100c10008a014600c4162c0065012000cf98de0032
:100c20000414b8000516b8008904460060854e001b
:100c30008005eb00041eb800890446000a854e00ba
:100c4000e0854d00051eb8000a0546008b854e0064
:100c5000040eb8000a0546008b854e00050eb8004c
:100c60008b054600040eb8008b05460004002200e8
:100c70008484440060054d00e0854d00ce4cde00cc
:100c80004252dd00848474004e55de00425add007d
:100c900004057500090343008a834b004f9ade0068
:100ca0000204b8000306b8000901460060854e0042
:100cb0000406b8008a0146004403240035002000e1
:100cc000cf98de000414b8000516b8008904460069
:100cd00060854e008005eb00041eb80089044600c4
:100ce0000a854e00e0854d00051eb8000a05460045
:100cf0008b854e00040eb8000a0546008b854e0019
:100d0000050eb8008b054600040eb8008b054600a2
:100d1000040022008484440060054d00e0854d00fd
:100d2000ce4cde004252dd00848474004e55de005d
:100d3000425add0004057500090343008a834b0015
:100d40004f9ade000204b8000306b800090146000d
:100d500060854e000406b8008a01460074802600b3
:100d6000cf9ade000414b8008005eb00041eb80022
:100d70008904460060854e00e0854d00042eb800d1
:100d80000a0546008b854e008b05460004002200b4
:100d90008484440060054d00e0854d00ce4cde00ab
:100da0004252dd00848474004e55de00425add005c
:100db00004057500090343008a834b004f9ade0047
:100dc0000204b8000306b8000901460060854e0021
:100dd0000406b8008a014600f4b82000cf9ade006d
:100de0000414b8008005eb00041eb8008904460016
:100df00060854e00e0854d00042eb8000a054600cf
:100e00008b854e008b054600ce4cde004252dd0045
:100e1000848474004e55de00425add0004057500de
:100e2000090343008a834b004f9ade000204b80096
:100e30000306b8000901460060854e000406b800ac
:100e40008a01460084122000cf9ade000414b80004
:100e50008005eb00041eb8008904460060854e0042
:100e6000e0854d00042eb8000a0546008b854e0033
:100e70008b054600ce4cde004252dd0084847400b7
:100e80004e55de00425add0004057500090343009b
:100e90008a834b004f9ade00cfa2de000204b80026
:100ea0000306b8000901460060854e000406b8003c
:100eb0008a014600b4012000cf9ade000414b80075
:100ec0008005eb00041eb8008904460060854e00d2
:100ed000e0854d00042eb8000a0546008b854e00c3
:100ee0008b054600ce4cde004252dd008484740047
:100ef0004e55de00425add0004057500090343002b
:100f00008a834b004f0478000800e00031003a006b
:100f1000cf007800420add0000102000a002880007
:100f20006044200004004000d000ba004f89de0079
:100f30004000ba0006027800870278000003eb0048
:100f40000404b8000506b8008904460060854e0018
:100f50000606b8000a054600e0854e008b054600ef
:100f6000040eb800890446000a854e00e0854d0055
:100f7000050eb8000a0546008b854e00060eb80027
:100f80008b0546000416b8000a0546008b854e0006
:100f90000516b8008b0546008b05460004002100ad
:100fa0008484440060054d00e0854d00cd4cde009a
:100fb0004352dd00048074004d55de00435add00cd
:100fc000840075004f06be004f05be004f04be00f2
:100fd00000000600cf007800410add00001020006c
:100fe000a002880061472000848040001100ba0000
:100ff00006027800870278000003eb000404b800c2
:101000000506b8008904460060854e000606b80053
:101010000a054600e0854e008b0546008b0546001c
:10102000ce4cde004252dd00048074004e55de00de
:10103000425add00840075004f06be004f05be0019
:101040004f04be0000000600000278008102780014
:101050000000e00010003a00020028008101780042
:10106000e0ff2f00cf80de001218e700000006002e
:10107000f2ff270020002000cf80de001218e700da
:1010800000000600f0ff2f00f1ff27000001eb0039
:101090001218e700000006000400780085007800c0
:1010a000889fbe001800200001f0a3000400390052
:1010b000f8ff2f0001c2b9000040b90081004200d2
:1010c000881f780000017800810178000300e000ab
:1010d00014003a00140020000220e10007003a004a
:1010e000f0ff2f00f1ff270001c2b9000040b90056
:1010f000810042004f04be000000060024002000d2
:101100000220e10007003a00f0ff2f00f1ff270066
:1011100001c2b9000040b900810042004f04be0086
:10112000000006008181cf000300e00004003a00c7
:101130001118e700030120000081cf008301410066
:10114000e28151007018e10005003c00708111003f
:101150000202de008308dd00848070000200370098
:10116000708151008200dd000400280081025200dd
:101170006118e100830034008a9fbe008c9fbe008e
:101180000000220006002800050343000625b800e1
:101190004f55de00c15ddd000b027500052db80066
:1011a00000054500e0854d004e55de00c25ddd00c6
:1011b0008b027500e08342000725b8006126b90064
:1011c0008c8545000b027800052db800e1854500af
:1011d000c1dade0000002400060028008503430079
:1011e0000725b8004230de0000054500e0854d00cf
:1011f0004f55de00c15ddd000b027500052db80006
:1012000000e0230000054500e0854d004f55de005d
:10121000c15ddd008b027500850343000725b80022
:101220004f52de00415cdd00080272004f5cde00c0
:1012300000002400052db80000054500e0854d00a4
:101240004f55de00c15ddd008b0275008503430054
:10125000043db80008beb9008c8545004f52de0041
:10126000415cdd00080272004f5cde00052db80015
:1012700000054500e0854d004f55de00c15ddd00f5
:101280008b02750085034300043db80008beb90019
:101290008c8545004f52de00415cdd000802720083
:1012a0004f5cde00052db80000054500e0854d00cf
:1012b0004f55de00c15ddd008b02750085034300e4
:1012c000043db80008beb9008c8545004f52de00d1
:1012d000415cdd0008027200cf5ade0012002000df
:1012e0007018e10004003c00f08011008110de0065
:1012f0000310dd0003003700f08051008110dd0095
:101300000000eb004f89de00820178004fabde0069
:10131000860378000404b8000506b8008904460076
:1013200060854e000606b8000a054600040eb800a7
:10133000890446000a854e00050eb8000a054600dd
:101340000416b8000a0546008b0546004e40de0034
:10135000424add0004007000ce48de004252dd004b
:10136000848070004f06be004f05be004f04780019
:1013700001c2b9000040b900810042004f04be0024
:10138000000006000300e0007c0034008a9fbe00dd
:101390008c9fbe0000002200060028008503430049
:1013a0000725b8004f55de00c15ddd000b0275005a
:1013b000052db80000054500e0854d004e55de00c6
:1013c000c25ddd008b027500e08342000725b80096
:1013d0006126b9008c8545000b027800052cb80009
:1013e00006044400e0844c00c1cade004100dd0078
:1013f00006002800850343000725b8004f55de008e
:10140000c15ddd000b027500052db800000545002b
:10141000e0854d004f55de00c15ddd008b0275009b
:10142000850343000725b8004f55de00c15ddd0090
:101430000b027500052db80000054500e0854d0044
:101440004f55de00c15ddd008b0275008503430052
:101450000725b8004f52de00415cdd000802720033
:101460004f5cde00052db80000054500e0854d000d
:101470004f55de00c15ddd008b0275008503430022
:10148000043db80008beb9008c8545004f52de000f
:10149000415cdd00080272004f5cde00052db800e3
:1014a00000054500e0854d004f55de00c15ddd00c3
:1014b0008b02750085034300043db80008beb900e7
:1014c0008c8545004f52de00415cdd000802720051
:1014d000cf5ade00120020007018e10004003c002a
:1014e000f08011008110de000310dd0003003700e2
:1014f000f08051008110dd000000eb004f89de001c
:10150000820178004fabde00860378000404b80047
:101510000506b8008904460060854e000606b8003e
:101520000a054600040eb800890446000a854e00ec
:10153000050eb8000a0546000416b8000a05460064
:101540008b0546004e40de00424add00040070007c
:10155000ce48de004252dd00848070004f06be009f
:101560004f05be004f04780001c2b9000040b90029
:10157000810042004f04be00000006008a9fbe00aa
:101580008c9fbe0000002400060028008503430055
:101590000725b8004f55de00c15ddd000b02750068
:1015a000052db80000054500e0854d004f55de00d3
:1015b000c15ddd008b027500850343000725b8007f
:1015c0004f55de00c15ddd000b027500052db80032
:1015d00000054500e0854d004f55de00c15ddd0092
:1015e0008b027500850343000725b8004f55de00c8
:1015f000c15ddd000b027500052db800000545003a
:10160000e0854d004f55de00c15ddd008b027500a9
:10161000850343000725b8004f55de00c15ddd009e
:101620000b027500052db80000054500e0854d0052
:101630004f55de00c15ddd008b0275000004eb003c
:10164000850343000725b8004f52de00415cdd00f2
:10165000080272004f5cde00052db8000005450051
:10166000e0854d004f55de00c15ddd008b02750049
:1016700085034300043db80008beb9008c854500d1
:101680004f52de00415cdd00080272004f5cde005c
:10169000052db80000054500e0854d004f55de00e2
:1016a000c15ddd008b02750085034300043db80079
:1016b00008beb9008c8545004f52de00415cdd005c
:1016c00008027200cf5ade00120020007018e100fc
:1016d00004003c00f08011008110de000310dd00ea
:1016e00003003700f08051008110dd000000eb00a6
:1016f0004f89de00820178004fabde008603780060
:101700000404b8000506b8008904460060854e0050
:101710000606b8000a054600040eb8008904460013
:101720000a854e00050eb8000a0546000416b800ea
:101730000a0546008b0546004e40de00424add00a9
:1017400004007000ce48de004252dd00848070004c
:101750004f06be004f05be004f04780001c2b9001d
:101760000040b900810042004f04be0000000600a6
:101770001600200001f0a30004003900f6ff2f003e
:1017800001b2b9000030b90081004200861f780024
:101790004f89de00cf89de00e4062300f5452100f5
:1017a000810178000403b8000500b80087034000f9
:1017b000608348000418b80087034000068348008f
:1017c0000518b80006034000e08148000410b80086
:1017d00006034000838148000510b80083014000e3
:1017e00083014000860278004f0378000400220045
:1017f0008480430060814a00e0814900ce08de0019
:101800004212dd00048070004e11de00421add003d
:10181000840071000100a7000603ea0000f0a700a1
:1018200060001000d11725000100e1001800310010
:10183000814826000100b8004d00de00c308dd002d
:1018400081007000810378000109b8000308b80026
:1018500050552500000ab800c1aade008583530058
:101860000308b80040442400000ab800c5aade00fe
:10187000858343000308b80000682000000ab80010
:10188000c7aade00858353000730b90000000600b8
:101890000100280000805000814826000100b800a7
:1018a0004d00de00c308dd0081007000c01b200079
:1018b0000008e10003003100f0ff2f000030b90004
:1018c0000000060002002000130020000108b800fc
:1018d00081037800040028000122b80005015100ae
:1018e000e08159000708b800545525000122b800ce
:1018f000c3aade0005014100e08149000708b800e5
:1019000034d822000122b800c7aade000501510028
:10191000e08159000708b800040d20000122b8003a
:10192000c7aade0005014100e08149000708b800b0
:10193000240020000122b800c7aade0005015100e2
:10194000e081590003b2b9000230b90081004200c1
:1019500000000600839f68000100e00002003d00d7
:1019600060001000e08018000300e00002003d006d
:1019700060011100e0811900100007004f00e00035
:1019800002003b0060001000e0801800000006002c
:101990000202b800020bb90006824200e0824b004e
:1019a0000383b8000388b9008600420000804b0022
:1019b000008042008000fd0000000600610ab800bf
:1019c000800078000000eb00060220000000d0003c
:1019d0008180d2000482d2008582d2000000a00063
:1019e0000202520083825a0003003b0002024200be
:1019f00083824a000000a1000603e900f3ff3a00d9
:101a000000000600000005000001be001f000700e6
:101a10000470a70003f0a1006509b10016003200b0
:101a20000d0035006828e10006003500f0ff2f00aa
:101a3000f1ff27000300e00013003b000100280035
:101a40000000050000004000818048008502e90098
:101a5000fcff3a0008003700f88f420002003c000b
:101a60008000eb00000005008100d1000080d30061
:101a70008502e800fcff3a000300e00002003b00a2
:101a800060001000e080180000000600c70ade00b9
:101a9000f107b200f50fb20008003200e1cf4200ba
:101aa000020032000170a00024000500810f7000c8
:101ab000010032000408050044000500810f700099
:101ac00002003a00140005008502e9000000400011
:101ad00081c04800fcff3b000170a000240005000d
:101ae000038368000700280007036300470ade003d
:101af0000480a100c71ade000580a100f70f2000b6
:101b00000720e100420032000728e10040003200d7
:101b1000889fbe008a9fbe008c1f7800f107b2002c
:101b2000f307b2000400e000640032000170a0007e
:101b30000500e000680032000370a0008505420047
:101b4000eb07b1000204b8000302b800848444002b
:101b500060854a00020ab800848444000a854a006d
:101b6000030ab80004054500040033000804d0004f
:101b70008984d2000a85d2008b05e9006158e10012
:101b80003d0035000210200009016100030820001b
:101b900089816100f707200087836400088673004d
:101ba000c84cde00c853dd00878474004855de0051
:101bb0000300e000060032008203760004003200d9
:101bc0008904e80060054d000a88a3000c003a0073
:101bd000f70f20000758e10044003d000a70a10003
:101be000c75ddd000a8575008a0073000900780072
:101bf0004f0678004f05be004f04be0000000600ef
:101c00000a05d1008984d3008b05e800f0ff370076
:101c1000881f780006047800990007000702780002
:101c20000001fd008101fd0095000700870278009a
:101c3000850372000778a300050032000001fd0053
:101c40008101fd005b0007004f04780000000600e2
:101c5000850372000748a30003003200f0ff2f0045
:101c6000f1ff2700f8ff37000000200001f82700ef
:101c700088807000f4ff3700880178004848dd0054
:101c8000808171004848de00c850dd00010070000e
:101c9000c850de00060478000b0178004e000700f3
:101ca00088807000d2ff37000500e0000500320098
:101cb00017002000100007009dff3700810370000f
:101cc000f9ff3a00860078004f0678004f05be0005
:101cd0004f04be000000050083037100f9ff3200cd
:101ce000270020000400070094ff370001f82700b8
:101cf00086807000f4ff3700889fbe000004eb0070
:101d00006138e10016003a000100e00008003a00e6
:101d1000c800de004800dd00880020000100e0006f
:101d200003003a00c800de004800dd0068044400fb
:101d30008184cf00e9845400060034008908dd0066
:101d4000f08314008703de00878070000900dd0047
:101d500009044400610214004f04be0000000600a4
:101d60000300e00008003a00c811de004811dd0061
:101d7000880020000300e00003003a00c811de00e4
:101d80004811dd00680444008384cf00e9845400d6
:101d9000060034008919dd00f08314008713de008b
:101da000878171000911dd0009044400e10214007b
:101db000e9ff37000478a300040032000578a3008f
:101dc000030032000168a30001003a000200be00d7
:101dd0000160a000000006000100e00026003200c3
:101de000610111007810e10023003c006022b8007e
:101df0007010e100040035008002780001007800d6
:101e00008000eb00700151000200e0000900340086
:101e100070031100062add00822ade008603dd0041
:101e2000878272000200de00860bdd000700700072
:101e30008208de0084817100f4ff270004826200c2
:101e400084817100040028008482620061026000c5
:101e500005f0a600000006000482710007003200b1
:101e60000000e800e0804800000006000002be001c
:101e70006000b800efff37006000b8000000060007
:101e80002700200001f0a70017002000470bde000c
:101e9000f60fb200040032000643e8000a003200e8
:101ea0004702b3000000060001037800f607b20005
:101eb0000603700002003a000703b30000000600aa
:101ec0008702b3000000060001037800f607b200a5
:101ed00006037000020032000770a0000000060038
:081ee0000760a00000000600ed
:020000040000fa
:101ee8000400fa00008fbe000200200003782400de
:101ef8001e0078009e009000f7fe0700c0fe070055
:101f08000080fa00000006000000fa00f0432200fa
:101f18003100200000808800118088000000200027
:101f2800a1672400eeff0700208088003180880028
:101f380000002000a16f2400e9ff0700408088000e
:101f4800518088000000eb00208388000000eb002f
:101f5800308388000000eb00408388003e30ef00ab
:101f68004030ef004230ef004430ef004630ef00e1
:101f78004830ef004a30ef004c30ef004e30ef00b1
:101f88005030ef00803e2000b08488000080fa00c6
:101f9800000006000000fa002083800000004000d6
:101fa80000f0a7000000ea009084880050848000b8
:101fb8006184800044808000558080000001be005c
:101fc8000400be0070fe07001dfc07006000100042
:101fd800e08018004ffa07008180d1000080d3000c
:101fe8000000780000f0a100308488007084800030
:101ff8008184800044808000558080000001be00fc
:102008000400be0060fe07000dfc07006000100021
:10201800e08018003ffa07008180d1000080d300db
:102028000000780000f0a100408488002182800030
:1020380090848000808f500003003d003084800031
:10204800608088000200370040848000608088003b
:102058001281c30090848000618080008180ea0042
:1020680001f0a10001027800800278001281c0000e
:102078002082800061808000010278008002780060
:102088001281c00010828000208288000080cd006c
:10209800108288001082800080007800c084800050
:1020a80000805000b0818800b08180000000e0000e
:1020b80003003d000000eb00a08488000900370001
:1020c800b1848000b0818000808f500003003d0003
:1020d800b0848000a084880002003700b0818000ae
:1020e800a08488000080fa00000006000000fa00c2
:1020f80000198000610060000000e0002400320048
:10210800001880008000eb00c000dd000000200007
:10211800220521000089be00201880006101b80056
:102128004818dd00c810de00810070004810dd008e
:10213800c0818800d1818800c0818000d181800061
:1021480002502b0003002000820f5000838f58009c
:1021580002003d0000502b00010020002205210054
:10216800200198003101980010188000c084880070
:10217800701880008000eb0050848800618488001b
:10218800401880008000eb007084880081848800fb
:102198000080fa00000006000200fa00889fbe00d6
:1021a8008a9fbe00004f7800d0838000e0838800bb
:1021b800f0838000018480001084880021848800d6
:1021c800200521001001780090019000a084800073
:1021d800cf80de00c000dd000000200002004000cb
:1021e80083804800c0818800d18188004a808000af
:1021f8005b8080000080800011808000c4818000a6
:10220800d58180000001be000400be00defd07008d
:102218000a01be00cdfd070053fd0700000078004d
:1022280000f0a100d083880020052100b0009000b4
:102238002000900082fb0700f0838800018488005a
:102248007082800080828800218380004082800024
:102258000085500060828000cf80de00c000dd0075
:1022680000002000f4838000058480000001be0087
:102278000400be00c4fd0700408cde00cf8cde00e9
:102288000800780000005500708288001201c30021
:1022980071828000d083800000027800810278007b
:1022a8001301c00050828000608288000100cd00c8
:1022b8006082800000804000508288001201c300c4
:1022c80051828000d083800000027800810278006b
:1022d8001301c00030828000408288000100cd00d8
:1022e80040828000008040003082880080c6b300b1
:1022f8009e40780080cf500003003a007082800032
:10230800f08188000900370020c6b3009e4078009d
:1023180080cf500003003a0050828000f08188008e
:102328000200370030828000f08188004f05be002f
:102338004f04be000080fa00000006000000fa000a
:10234800889fbe00200521001001780090019000b0
:10235800a0848000cf80de00c000dd0000002000e7
:102368000200400083804800c0818800d181880035
:102378002880800039808000c0818000d181800061
:1023880004808000158080000001be000400be00ab
:102398007dfd07000801be006cfd07007080880005
:1023a8008180880020052100b00090002000900066
:1023b80023fb070090808800a1808800908080001f
:1023c800a18080008180d1000080d300b080880087
:1023d800c18088007080800081808000e2fc070056
:1023e800d0808800e1808800d0808000e180800073
:1023f800b4808000c58080000001be000400be00db
:1024080061fd07000001be0000002000110020004f
:102418000204400083844800d0808000e18080006e
:10242800b4808000c58080000001be000400be00aa
:1024380055fd070002002000130020000000510095
:10244800818059000801be0040fd07008180d1004d
:102458000080d300708188008181880070808000ae
:10246800818080008cf8070074818000858180005d
:102478000200280003002000040241008582490070
:102488000001be000400be003ffd070090818800e7
:10249800a18188007281800083818000000028006b
:1024a80001002000020140008381480090818000e3
:1024b800a181800000005100818059008180d100f5
:1024c8000080d3000000780000f0a100908388000d
:1024d800908380000080d100808388008083800002
:1024e800a083880090818000a1818000e00f5000c7
:1024f800e08f580007003d0090818000a181800096
:102508008180d1000080d3000000780000f0a00096
:102518000600370090818000a18180008180d10071
:102528000080d3000000780000f0a100b08388008c
:1025380070818000818180000000780000f0a10097
:10254800c08388004f04be000080fa000000060027
:102558000000fa001201c3001281c30080838000ca
:102568002183800001027800800278001281c00077
:102578009083800031838000810378000002780016
:102588001281c200a083800041838000810278000c
:10259800800378001281c500b1838000f08180003b
:1025a80000027800810278001301c0000000cd000d
:1025b800cf80de00c0818800d1818800c281800080
:1025c800d38180000000280001002000020278006a
:1025d800030178008001780001007800030262009e
:1025e800000061008000eb00c000dd00000020005a
:1025f8000001be006120b8000001710081817100f6
:10260800e00f5100e08f590007003200c0818000c0
:10261800d181800000004000818048000001be0098
:1026280002f0a00013003700c0818000d181800033
:102638000001400081814800f0ff270001002000d0
:102648000202780003017800800178000100780018
:1026580003026200000061008000eb00c000dd00a2
:10266800000020000001be006120b80000017100d8
:1026780081817100c2818800d3818800c183800074
:1026880000828000000278008103780012c1c20035
:10269800f0818000008288003083800040838800b9
:1026a80020838000308388000080cd0000017800fe
:1026b800c0818000d18180000000780000004100c6
:1026c800f08188000080fa00000006000600fa0089
:1026d80010079800210798009e0090002e00900097
:1026e800808f500003003500ae009000010f780085
:1026f8000a0037002e0090008000ea001e009000bb
:10270800808f5000030035002e009000000fea0073
:10271800020037009e009000010f78001e0078002c
:102728000080fa00000006000000fa000e2eef00fc
:102738001e2eef002e2eef00008ea900206ea9009d
:10274800012ea800208ea9004134800000fc2f0033
:10275800008060000030a00040348800114ea900bd
:1027680061368000f00f28008080600000b02200f1
:102778000100700060368800116ea8006136800084
:1027880000f82f0080806000c00220000100700067
:1027980060368800118ea8007136800000f82f007e
:1027a80080806000d0022000010070007036880030
:1027b80011aea800112ea900132ea9000080fa005e
:1027c800000006000000fa0021e1a9001fe1a900ad
:1027d8001e61a8001e21a9001ec1a900f1088000e1
:1027e800f0fc2f0000806000f00888000080fa00ec
:1027f800000006000000fa0060022000303a88005d
:10280800213a8000f0f32f0000806000203a880011
:10281800213a800000fe2f0000806000203a8800e6
:102828004827ef0040a7a9002e2eef003200200015
:1028380080072000a1092000337420008049780017
:102848008149780082497800103a800000017800b8
:102858000200a000600420007105200023742000fd
:10286800804978008149780082497800000000009a
:10287800113a8000000027008080600000002300db
:10288800808f5000faff3a0000000000113a8000e3
:1028980000022000008060000000e000fbff320022
:1028a8000080fa00000006000000fa006002200024
:1028b800303a8800213a8000f0f32f000080600051
:1028c800203a8800213a800000fe2f000080600036
:1028d800203a88004827ef0040a7a9002e2eef00d5
:1028e8001200200080072000a10920003374200076
:1028f800804978008149780082497800103a800040
:10290800000178000200a00060042000710520008a
:102918002374200080497800814978008249780032
:1029280000000000113a800000002700808060004d
:1029380000002100808f5000faff3a0000000000dc
:10294800113a800000022000008060000000e000d2
:10295800fbff32000080fa00000006000400fa00c5
:10296800008fbe001421ef001821ef001fe1a8001e
:1029780000000000c00880008000eb00c001dd00fe
:1029880002002000a00880008000eb000002710017
:10299800818271009e009000700420008089b90037
:1029a8001e007800e000b900000141009e00780098
:1029b800700420000008b80001014100820078007e
:1029c800800f5200818f5a00eaff39001fe1a900e9
:1029d8000080fa00000006000400fa00008fbe0024
:1029e8001421ef001821ef001fe1a80000000000eb
:1029f800c00880008000eb00c001dd00020020005c
:102a0800a00880008000eb00000271008182710044
:102a18009e009000805521008089b9001e00780032
:102a2800e100b900000141009e00780080552100b6
:102a38000008b8000101410082007800800f5200b0
:102a4800818f5a00eaff39001fe1a9000080fa00cf
:102a5800000006000400fa00008fbe001421ef00f9
:102a68001821ef001fe1a80000000000c008800046
:102a78008000eb00c001dd0002002000a0088000fb
:102a88008000eb000000710081807100be0f5000d3
:102a9800ae8f5800f5ff39001fe1a9000080fa0049
:102aa800000006000000fa004822ef004022ef0074
:102ab800a04f20001012880045e2a90045c2a900d5
:102ac80045a2a90000002800001288000080fa0032
:102ad800000006000000fa006822ef006022ef0004
:102ae800a04f20001013880065e2a80065c2a90065
:102af80065a2a8006422a90061e2a8000080fa008b
:102b0800000006000000fa004022ef000080fa00f2
:102b1800000006000000fa004822ef004022ef0003
:102b2800004420001012880045e2a80045c2a80011
:102b380045a2a80000002800001288000080fa00c2
:102b4800000006000000fa006822ef006022ef0093
:102b5800004420001013880065e2a80065c2a800a0
:102b680065a2a8006422a9000000280000138800bc
:102b78000080fa00000006000200fa00000f78004a
:102b88001e0078004012880000000000001280003b
:102b9800610060000000e000fcff3200401280008d
:102ba8000080fa00000006000200fa00000f78001a
:102bb8001e00780040138800000000000013800009
:102bc800610060000000e000fcff3200401380005c
:102bd8000080fa00000006000200fa00004f7800aa
:102be8001e4078000004e00002003200228ea90096
:102bf80001003700228ea8000080fa0000000600bd
:102c08000000fa0010c0b300f3ff070000e0210045
:102c1800d9ff07000040eb00efff070010c0b3002a
:102c2800edff070070012000d3ff07000040eb0014
:102c3800e9ff070010c0b300e7ff07007029200074
:102c4800cdff07000040eb00e3ff070010c0b30012
:102c5800e1ff070000432000c7ff07000040eb002a
:102c6800ddff070010c0b300dbff07000063200092
:102c7800c1ff07000040eb00d7ff070010c0b300fa
:102c8800d5ff070020812000bbff07000040eb00b4
:102c9800d1ff070010c0b300cfff070020a020001d
:102ca800b5ff07000040eb00cbff070010c0b300e2
:102cb800c9ff070020c02000afff07000040eb005d
:102cc800c5ff070010c0b300c3ff070030e52000b0
:102cd800a9ff07000040eb00bfff070010c0b300ca
:102ce800bdff070080012100a3ff07000040eb00a3
:102cf800b9ff070010c0b300b7ff0700102021007c
:102d08009dff07000040eb00b3ff07000080fa00ba
:102d1800000006000000fa00268ea90026aea900d1
:102d28000742a9000782a800c012200020108800ce
:102d38000a22ef000c22ef0007e2a8000080fa0048
:102d4800000006000600fa00204798003147980066
:102d5800424798003e4090000004e0000100320025
:102d68000602a8002e4090000080fb00101088008a
:102d78000000000041108000000024000080600076
:102d88000000e000fbff3a0041108000000028002e
:102d9800008060000000e000120032000040eb00fc
:102da800004f78001e407800e24f50000d003e00b2
:102db8004e419000be4090002e409000e1ff070079
:102dc8000004e00006003a004e4090000004e000d5
:102dd800010032000642a8000040eb000600370060
:102de800000000004e4090000004e00001003200a6
:102df8000642a80010c0b3000080fa0000000600d8
:102e08000000fa000000eb000080fa000000060055
:102e18000000fa005a30ef005c30ef00c3e8a80069
:102e2800c1e8a9000080fa00000006000000fa00ce
:102e3800c3e8a9000080fa00000006000000fa00bc
:102e480001428000f0ff28000080600000d0a00050
:102e5800004288000068a9002068a80005e1a800d1
:102e68000080fa00000006000000fa0021428000fd
:102e7800f0f82f00008060000050a0002042880079
:102e88000128a9002128a8000080fa0000000600f7
:102e98000000fa008142800080ff2f00008060005f
:102ea8000010a000804288000408a9002408a80097
:102eb8000080fa00000006000000fa00414280008d
:102ec800f0ff2800808060000000230001007000ef
:102ed800404288000268a9002268a80019aea8002c
:102ee8000080fa00000006000000fa003000200010
:102ef8007070880040002000f070880050002000aa
:102f0800707188008000200000198800503020006f
:102f180010198800f0002000201988003223ef00e3
:102f28002e23ef003023ef004119800000fe2f0010
:102f3800008060000020a0004019880028e3a90054
:102f48002603a9003119800090ff2f00008060003f
:102f58003019880041198000f00f2e0000806000b1
:102f680000b0a0004019880029e3a9002703a800a1
:102f780031198000f09f2f00008060003019880010
:102f880021e3a800400120000100200073fe070093
:102f98000080fa00000006000000fa004480a80043
:102fa80044e0a80044c0a80044a0a80011fe0700ff
:102fb80097ff0700b6ff070002fe0700dafd0700cb
:102fc800d1fb0700b7fe07000dff0700cdfe070085
:102fd800c5ff0700b8ff0700dafe0700ffff37004c
:020000040000fa
:102fe8005a1000000a000000800000006410000071
:102ff8003600000080000000001000005a000000a9
:08300800800000000000000040
:020000040000fa
:020000040005f5
:045fe000cdff0000f1
:020000040000fa
:020000040005f5
:045fe400ffff0000bb
:020000040000fa
:020000040005f5
:045fe8007fff000037
:020000040000fa
:020000040005f5
:045fec005eff000054
:020000040000fa
:020000040005f5
:045ff00078ff000036
:020000040000fa
:020000040005f5
:045ff400ffff0000ab
:00000001FF
